:100000000C942A000C943C000C943C000C943C0092
:100010000C943C000C943C000C943C000C943C0070
:100020000C943C000C943C000C943C000C943C0060
:100030000C943C000C943C000C943C000C943C0050
:100040000C943C000C943C000C943C000C943C0040
:100050000C943C0011241FBECFE5D8E0DEBFCDBF1D
:1000600020E0A0E6B0E001C01D92A236B207E1F7A1
:100070000E943E000C946D000C94000087B38FEF3B
:1000800087BB88BB8AB38C6D8ABB80E68BBB0000C4
:100090000000809160009091610001969093610052
:1000A0008093600000008BB384608BBB000018BAA3
:1000B0002FEF81EE94E0215080409040E1F700C0A6
:1000C00000008FEF88BB2FEF89E698E12150804038
:0E00D0009040E1F700C00000DACFF894FFCFB7
:00000001FF
